{
  "_format": "hh-sol-artifact-1",
  "contractName": "InsultPortal",
  "sourceName": "contracts/InsultPortal.sol",
  "abi": [
    {
      "inputs": [],
      "stateMutability": "payable",
      "type": "constructor"
    },
    {
      "anonymous": false,
      "inputs": [
        {
          "indexed": true,
          "internalType": "address",
          "name": "from",
          "type": "address"
        },
        {
          "indexed": false,
          "internalType": "string",
          "name": "to",
          "type": "string"
        },
        {
          "indexed": false,
          "internalType": "uint256",
          "name": "timestamp",
          "type": "uint256"
        },
        {
          "indexed": false,
          "internalType": "string",
          "name": "insultType",
          "type": "string"
        },
        {
          "indexed": false,
          "internalType": "string",
          "name": "message",
          "type": "string"
        }
      ],
      "name": "NewInsult",
      "type": "event"
    },
    {
      "inputs": [],
      "name": "getAllInsults",
      "outputs": [
        {
          "components": [
            {
              "internalType": "string",
              "name": "insultType",
              "type": "string"
            },
            {
              "internalType": "string",
              "name": "message",
              "type": "string"
            },
            {
              "internalType": "address",
              "name": "insulter",
              "type": "address"
            },
            {
              "internalType": "uint256",
              "name": "timestamp",
              "type": "uint256"
            },
            {
              "internalType": "string",
              "name": "insultee",
              "type": "string"
            }
          ],
          "internalType": "struct InsultPortal.Insult[]",
          "name": "",
          "type": "tuple[]"
        }
      ],
      "stateMutability": "view",
      "type": "function"
    },
    {
      "inputs": [],
      "name": "getTotalInsults",
      "outputs": [
        {
          "internalType": "uint256",
          "name": "",
          "type": "uint256"
        }
      ],
      "stateMutability": "view",
      "type": "function"
    },
    {
      "inputs": [
        {
          "internalType": "string",
          "name": "_insultee",
          "type": "string"
        },
        {
          "internalType": "string",
          "name": "_insultType",
          "type": "string"
        },
        {
          "internalType": "string",
          "name": "_message",
          "type": "string"
        }
      ],
      "name": "insult",
      "outputs": [],
      "stateMutability": "nonpayable",
      "type": "function"
    },
    {
      "inputs": [
        {
          "internalType": "address",
          "name": "",
          "type": "address"
        }
      ],
      "name": "lastWavedAt",
      "outputs": [
        {
          "internalType": "uint256",
          "name": "",
          "type": "uint256"
        }
      ],
      "stateMutability": "view",
      "type": "function"
    }
  ],
  "bytecode": "0x6080604052606444426200001491906200002c565b62000020919062000093565b60018190555062000129565b6000620000398262000089565b9150620000468362000089565b9250827fffffffffffffffffffffffffffffffffffffffffffffffffffffffffffffffff038211156200007e576200007d620000cb565b5b828201905092915050565b6000819050919050565b6000620000a08262000089565b9150620000ad8362000089565b925082620000c057620000bf620000fa565b5b828206905092915050565b7f4e487b7100000000000000000000000000000000000000000000000000000000600052601160045260246000fd5b7f4e487b7100000000000000000000000000000000000000000000000000000000600052601260045260246000fd5b61126780620001396000396000f3fe608060405234801561001057600080fd5b506004361061004c5760003560e01c806364f673a714610051578063a42a46631461006f578063b09590b91461009f578063fd2f817f146100bb575b600080fd5b6100596100d9565b6040516100669190610ded565b60405180910390f35b61008960048036038101906100849190610a37565b61034e565b6040516100969190610f29565b60405180910390f35b6100b960048036038101906100b49190610a60565b610366565b005b6100c361076b565b6040516100d09190610f29565b60405180910390f35b60606002805480602002602001604051908101604052809291908181526020016000905b8282101561034557838290600052602060002090600502016040518060a0016040529081600082018054610130906110ea565b80601f016020809104026020016040519081016040528092919081815260200182805461015c906110ea565b80156101a95780601f1061017e576101008083540402835291602001916101a9565b820191906000526020600020905b81548152906001019060200180831161018c57829003601f168201915b505050505081526020016001820180546101c2906110ea565b80601f01602080910402602001604051908101604052809291908181526020018280546101ee906110ea565b801561023b5780601f106102105761010080835404028352916020019161023b565b820191906000526020600020905b81548152906001019060200180831161021e57829003601f168201915b505050505081526020016002820160009054906101000a900473ffffffffffffffffffffffffffffffffffffffff1673ffffffffffffffffffffffffffffffffffffffff1673ffffffffffffffffffffffffffffffffffffffff168152602001600382015481526020016004820180546102b4906110ea565b80601f01602080910402602001604051908101604052809291908181526020018280546102e0906110ea565b801561032d5780601f106103025761010080835404028352916020019161032d565b820191906000526020600020905b81548152906001019060200180831161031057829003601f168201915b505050505081525050815260200190600101906100fd565b50505050905090565b60036020528060005260406000206000915090505481565b42601e600360003373ffffffffffffffffffffffffffffffffffffffff1673ffffffffffffffffffffffffffffffffffffffff168152602001908152602001600020546103b39190611016565b106103f3576040517f08c379a00000000000000000000000000000000000000000000000000000000081526004016103ea90610f09565b60405180910390fd5b42600360003373ffffffffffffffffffffffffffffffffffffffff1673ffffffffffffffffffffffffffffffffffffffff1681526020019081526020016000208190555060016000808282546104499190611016565b9250508190555061048f6040518060400160405280601081526020017f25732068617320696e73756c7465642100000000000000000000000000000000815250336107b6565b60026040518060a001604052808481526020018381526020013373ffffffffffffffffffffffffffffffffffffffff1681526020014281526020018581525090806001815401808255809150506001900390600052602060002090600502016000909190919091506000820151816000019080519060200190610513929190610917565b506020820151816001019080519060200190610530929190610917565b5060408201518160020160006101000a81548173ffffffffffffffffffffffffffffffffffffffff021916908373ffffffffffffffffffffffffffffffffffffffff16021790555060608201518160030155608082015181600401908051906020019061059e929190610917565b505050606460015442446105b29190611016565b6105bc9190611016565b6105c6919061111c565b600181905550603260015411610712576106156040518060400160405280600781526020017f257320776f6e2100000000000000000000000000000000000000000000000000815250336107b6565b6000655af3107a4000905047811115610663576040517f08c379a000000000000000000000000000000000000000000000000000000000815260040161065a90610ec9565b60405180910390fd5b60003373ffffffffffffffffffffffffffffffffffffffff168260405161068990610dd8565b60006040518083038185875af1925050503d80600081146106c6576040519150601f19603f3d011682016040523d82523d6000602084013e6106cb565b606091505b505090508061070f576040517f08c379a000000000000000000000000000000000000000000000000000000000815260040161070690610ee9565b60405180910390fd5b50505b3373ffffffffffffffffffffffffffffffffffffffff167fa22013f142681bab229ec02994def3eba40a9ef38fffdc54bfea990a827fc59f8442858560405161075e9493929190610e6f565b60405180910390a2505050565b60006107ae6040518060400160405280601981526020017f5765206861766520256420746f74616c20696e73756c74732100000000000000815250600054610852565b600054905090565b61084e82826040516024016107cc929190610e0f565b6040516020818303038152906040527f319af333000000000000000000000000000000000000000000000000000000007bffffffffffffffffffffffffffffffffffffffffffffffffffffffff19166020820180517bffffffffffffffffffffffffffffffffffffffffffffffffffffffff83818316178352505050506108ee565b5050565b6108ea8282604051602401610868929190610e3f565b6040516020818303038152906040527f9710a9d0000000000000000000000000000000000000000000000000000000007bffffffffffffffffffffffffffffffffffffffffffffffffffffffff19166020820180517bffffffffffffffffffffffffffffffffffffffffffffffffffffffff83818316178352505050506108ee565b5050565b60008151905060006a636f6e736f6c652e6c6f679050602083016000808483855afa5050505050565b828054610923906110ea565b90600052602060002090601f016020900481019282610945576000855561098c565b82601f1061095e57805160ff191683800117855561098c565b8280016001018555821561098c579182015b8281111561098b578251825591602001919060010190610970565b5b509050610999919061099d565b5090565b5b808211156109b657600081600090555060010161099e565b5090565b60006109cd6109c884610f75565b610f44565b9050828152602081018484840111156109e557600080fd5b6109f08482856110a8565b509392505050565b600081359050610a078161121a565b92915050565b600082601f830112610a1e57600080fd5b8135610a2e8482602086016109ba565b91505092915050565b600060208284031215610a4957600080fd5b6000610a57848285016109f8565b91505092915050565b600080600060608486031215610a7557600080fd5b600084013567ffffffffffffffff811115610a8f57600080fd5b610a9b86828701610a0d565b935050602084013567ffffffffffffffff811115610ab857600080fd5b610ac486828701610a0d565b925050604084013567ffffffffffffffff811115610ae157600080fd5b610aed86828701610a0d565b9150509250925092565b6000610b038383610d36565b905092915050565b610b148161106c565b82525050565b610b238161106c565b82525050565b6000610b3482610fb5565b610b3e8185610fd8565b935083602082028501610b5085610fa5565b8060005b85811015610b8c5784840389528151610b6d8582610af7565b9450610b7883610fcb565b925060208a01995050600181019050610b54565b50829750879550505050505092915050565b6000610ba982610fc0565b610bb38185610ff4565b9350610bc38185602086016110b7565b610bcc81611209565b840191505092915050565b6000610be282610fc0565b610bec8185611005565b9350610bfc8185602086016110b7565b610c0581611209565b840191505092915050565b6000610c1d603483611005565b91507f547279696e6720746f207769746864726177206d6f7265206d6f6e657920746860008301527f616e2074686520636f6e7472616374206861732e0000000000000000000000006020830152604082019050919050565b6000610c83602783611005565b91507f4661696c656420746f207769746864726177206d6f6e65792066726f6d20636f60008301527f6e74726163742e000000000000000000000000000000000000000000000000006020830152604082019050919050565b6000610ce9600883611005565b91507f57616974203330730000000000000000000000000000000000000000000000006000830152602082019050919050565b6000610d29600083610fe9565b9150600082019050919050565b600060a0830160008301518482036000860152610d538282610b9e565b91505060208301518482036020860152610d6d8282610b9e565b9150506040830151610d826040860182610b0b565b506060830151610d956060860182610dba565b5060808301518482036080860152610dad8282610b9e565b9150508091505092915050565b610dc38161109e565b82525050565b610dd28161109e565b82525050565b6000610de382610d1c565b9150819050919050565b60006020820190508181036000830152610e078184610b29565b905092915050565b60006040820190508181036000830152610e298185610bd7565b9050610e386020830184610b1a565b9392505050565b60006040820190508181036000830152610e598185610bd7565b9050610e686020830184610dc9565b9392505050565b60006080820190508181036000830152610e898187610bd7565b9050610e986020830186610dc9565b8181036040830152610eaa8185610bd7565b90508181036060830152610ebe8184610bd7565b905095945050505050565b60006020820190508181036000830152610ee281610c10565b9050919050565b60006020820190508181036000830152610f0281610c76565b9050919050565b60006020820190508181036000830152610f2281610cdc565b9050919050565b6000602082019050610f3e6000830184610dc9565b92915050565b6000604051905081810181811067ffffffffffffffff82111715610f6b57610f6a6111da565b5b8060405250919050565b600067ffffffffffffffff821115610f9057610f8f6111da565b5b601f19601f8301169050602081019050919050565b6000819050602082019050919050565b600081519050919050565b600081519050919050565b6000602082019050919050565b600082825260208201905092915050565b600081905092915050565b600082825260208201905092915050565b600082825260208201905092915050565b60006110218261109e565b915061102c8361109e565b9250827fffffffffffffffffffffffffffffffffffffffffffffffffffffffffffffffff038211156110615761106061114d565b5b828201905092915050565b60006110778261107e565b9050919050565b600073ffffffffffffffffffffffffffffffffffffffff82169050919050565b6000819050919050565b82818337600083830152505050565b60005b838110156110d55780820151818401526020810190506110ba565b838111156110e4576000848401525b50505050565b6000600282049050600182168061110257607f821691505b60208210811415611116576111156111ab565b5b50919050565b60006111278261109e565b91506111328361109e565b9250826111425761114161117c565b5b828206905092915050565b7f4e487b7100000000000000000000000000000000000000000000000000000000600052601160045260246000fd5b7f4e487b7100000000000000000000000000000000000000000000000000000000600052601260045260246000fd5b7f4e487b7100000000000000000000000000000000000000000000000000000000600052602260045260246000fd5b7f4e487b7100000000000000000000000000000000000000000000000000000000600052604160045260246000fd5b6000601f19601f8301169050919050565b6112238161106c565b811461122e57600080fd5b5056fea26469706673582212205a5ec0a45bc1f2d7da6abf672bbfcf1d46758c3033d9060ca512d6c5127ed36664736f6c63430008000033",
  "linkReferences": {},
  "deployedLinkReferences": {}
}